8=FIX.4.2|9=145|35=D|34=4|49=ABC_DEFG01|52=20090323-15:40:29|56=CCG|115=XYZ|11=NF 0542/03232009|54=1|38=100|55=CVS|40=1|59=0|47=A|60=20090323-15:40:29|21=1|207=N|10=139
8=FIX.4.1|9=112|35=0|49=BRKR|56=INVMGR|34=235|52=19980604-07:58:28|112=19980604-07:58:28|10=157|
8=FIX.4.1|9=154|35=6|49=BRKR|56=INVMGR|34=236|52=19980604-07:58:48|23=115685|28=N|55=SPMI.MI|54=2|27=200000|44=10100.000000|25=H|10=159|
8=FIX.4.1|9=90|35=0|49=INVMGR|56=BRKR|34=236|52=19980604-07:59:30|10=225|